:020000040000FA
:06000000D8EF02F012002F
:020006001200E6
:0600080025EF00F01200DC
:02000E000100EF
:0C001000CC0500006A00000008000000A1
:04001C00806A816A0B
:10002000010E926E936EF19E826A946AC10EC26E48
:100030000E0EC16EC10ED56E050ECA6EF90ECB6ED8
:10004000F26AF28AF28C9D821200DACFE4FFE2CFEC
:10005000DAFFE9CFE4FFEACFE4FFF6CFE4FFF7CF22
:10006000E4FFF5CFE4FFF3CFE4FFF4CFE4FFFACFF2
:10007000E4FF00EE17F0020EE80403E3EECFE4FF26
:10008000FBD700EE19F0010EE80403E3EECFE4FF26
:10009000FBD7E652D9CFE6FFE1CFD9FF030EE12629
:1000A000F250040B31E0F250200B2EE0F294380EA7
:1000B000D66E0001752B73C0DFFF080EF36E020EC3
:1000C000F3CFDBFFDE52010EDD6EDF50EA6A6A0F0E
:1000D000E96E000EEA22EF50D880755504E2010E59
:1000E000DB1C821603D0010EDB508212010EDBCF27
:1000F000F3FFF39EF346F3CFDBFF7451DF26020ECE
:10010000DB06E3E11F0E75179EA203D09E9213EC4F
:1001100002F0030EE15C02E2E16AE552E16EE552B3
:10012000E7CFD9FFE55200EE19F0010EE80403E332
:10013000E5CFEDFFFBD700EE18F0020EE80403E375
:10014000E5CFEDFFFBD7E5CFFAFFE5CFF4FFE5CF35
:10015000F3FFE5CFF5FFE5CFF7FFE5CFF6FFE5CFFE
:10016000EAFFE5CFE9FFE5CFDAFF110094EC01F0FB
:1001700000008150010B02E0000E01D0010E136E51
:10018000FAEC01F0280EE66EE66AB4EC01F0E552F6
:10019000E55286EC01F0000081B0E8D774C074F03D
:1001A0000001746D94EC01F000008150010B02E13C
:1001B000000E01D0010E136EFAEC01F0280EE66E6F
:1001C000E66AB4EC01F0E552E55286EC01F000007D
:1001D00081A0E8D7CBD712000001766B00017651E1
:1001E000762B196E00017251D88019540BE3010E61
:1001F000E66EE66AB4EC01F0E552E55286EC01F0F9
:100200000000ECD70001732BE7D71200C70EC2160F
:10021000C28494EC01F00000C250040B02E0000E16
:1002200001D0010E136EFAEC01F0C4CF72F0640E2F
:10023000E66EE66AB4EC01F0E552E55286EC01F0B8
:100240000000E4D71200EADE0AEC02F0D80EE66EF7
:10025000010EE66EE66A24EC02F0E552E552E55244
:100260000C0EE66E020EE66EE66A24EC02F0E55233
:10027000E552E5526C0EE66E010EE66EE66A24EC7F
:1002800002F0E552E552E5520001736B010E746F06
:10029000F28ED0BEF28C136A0C0E155C000E16584E
:1002A00005E3000E156E000E166E04D0060E152620
:1002B000000E1622ACEC01F0EF50400B03E0EF50C3
:1002C000800B01E010D0EF50100B04E0EF50200B3A
:1002D00001E109D075EC01F01450E15C04E0145028
:0A02E000E16EE750D96ED7D7120087
:0602EA00030E39D8EF50AD
:1002F00004E0D950E76EE128D96EE150146EED505C
:10030000E126ED50FA6EED50F96E1200030E28D87A
:100310001450E15CED6EFE50ED6EFD50ED6EEF861B
:100320000600120006001200136A9CEF01F0120092
:1003300013689CEF01F012001290030E11D81450B4
:10034000E15CED6EFE50ED6EFD50ED6EEF96EFA8A8
:10035000EF9A13B0EF8A1200000EB0EF01F0120016
:100360001524E96EEA6A1200D9CFE6FFE1CFD9FF82
:10037000E652DF6AD950FD0FE96EFF0EDA20EA6E11
:10038000EE50ED1002E0010EDF6EE6DFEF9AEF981F
:10039000DFA01ED0D950FD0FE96EFF0EDA20EA6E05
:1003A000EE1EED1EFD0EDB2AFE0E01E3DB2A15C05C
:1003B000E9FF16C0EAFF040EE926000EEA22FD0E50
:1003C000DBCFEEFFFE0EDBCFEDFFC6DFEF88EF8663
:1003D000E552E552E7CFD9FF1200F250C00BF29E72
:1003E000D0BEF29C1200E8BEF28ED0BEE8AC01D0C6
:1003F000F28C1200129AB0DF135002E0EF9809D08D
:10040000EF50100B05E1EF50200B02E0128A01D0F3
:1004100006001200126A0C0E156E000E166E009C7D
:10042000069C0C9C1200000100B9043F02D0054B51
:10043000009906B90A3F02D00B4B06990CB9103F40
:1004400002D0114B0C991200D9CFE6FFE1CFD9FFB2
:10045000020EE1261292000EDE6E000EDD6E136AB1
:10046000DECFE9FFDDCFEAFFEF50400B2AE1FE0EC1
:10047000DB8CDB86DECFE9FFDDCFEAFFEE52FC0E40
:10048000DBCFEEFFFD0EDBCFEDFFDECFE9FFDDCFF3
:10049000EAFF040EE926000EEA22EE6AED6ADECFDC
:1004A000E9FFDDCFEAFF030EE926000EEA22EF6A3C
:1004B000DECFE9FFDDCFEAFFFE0EDBCFEFFF1292CA
:1004C0000ED0D9CFE9FFDACFEAFF060EEE26000EF6
:1004D000EF22132A030E135CC3E3128200D0020E34
:1004E000E15C02E2E16AE552E16EE552E7CFD9FF55
:0204F0001200F8
:0E04F2000E0EF66E000EF76E000EF86E000194
:100500000900F550656F0900F550666F03E16567F6
:1005100001D03DD00900F550606F0900F550616FC2
:100520000900F550626F09000900F550E96E0900F5
:10053000F550EA6E090009000900F550636F0900E3
:10054000F550646F09000900F6CF67F0F7CF68F047
:10055000F8CF69F060C0F6FF61C0F7FF62C0F8FF36
:100560000001635302E1645307E00900F550EE6EA9
:100570006307F8E26407F9D767C0F6FF68C0F7FFC2
:1005800069C0F8FF00016507000E665BBFD7120067
:10059000000EF36E00EE00F0060E01D81200EA60C5
:1005A00002D0EE6AFCD7F350E9601200EE6AFCD785
:1005B00015EE00F025EE00F0F86A189C79EC02F0D8
:0C05C00003EC00F023EC01F0FBD712006C
:0405CC0040201008B3
:0405D0000402010020
:020000040030CA
:0100010025D9
:010002000DF0
:010003000EEE
:010006008178
:00000001FF
